:100000000C945D000C9485000C9485000C94850084
:100010000C9485000C9485000C9468030C94850066
:100020000C9485000C9485000C9485000C9485003C
:100030000C9485000C9485000C9485000C9485002C
:100040000C94B5020C9485000C9485000C948500EA
:100050000C9485000C94FF020C9485000C94850090
:100060000C9485000C94850000000008000201003B
:100070000003040700000000000000000000000072
:10008000250028002B0000000000240027002A0083
:10009000040404040404040402020202020203032E
:1000A0000303030301020408102040800102040836
:1000B0001020010204081020970311241FBECFEF67
:1000C000D8E0DEBFCDBF11E0A0E0B1E0EEE6F8E0A1
:1000D00002C005900D92A631B107D9F721E0A6E143
:1000E000B1E001C01D92A933B207E1F710E0CDE500
:1000F000D0E004C02197FE010E942F04CC35D10727
:10010000C9F70E94B5030C9435040C94000090E0EC
:10011000FC01EC55FF4F249180579F4FFC018491C7
:10012000882399F090E0880F991FFC01EA57FF4F50
:10013000A591B491FC01E458FF4F859194918FB73C
:10014000F894EC91E22BEC938FBF089590E0FC01C2
:10015000E859FF4F2491FC01EC55FF4F3491FC010D
:10016000E057FF4FE491EE23C9F0222339F023300A
:1001700001F1A8F4213019F1223029F1F0E0EE0F5D
:10018000FF1FE458FF4FA591B4918FB7F894EC91FD
:10019000611126C030953E233C938FBF08952730D0
:1001A000A9F02830C9F0243049F7809180008F7D74
:1001B00003C0809180008F7780938000DFCF84B56B
:1001C0008F7784BDDBCF84B58F7DFBCF8091B0006E
:1001D0008F778093B000D2CF8091B0008F7DF9CF20
:1001E0003E2BDACFAF92BF92CF92DF92EF92FF9287
:1001F0000F931F93CF93DF936C017B018B01040F4F
:10020000151FEB015E01AE18BF08C017D10759F0EA
:100210006991D601ED91FC910190F081E02DC6012C
:100220000995892B79F7C501DF91CF911F910F9126
:10023000FF90EF90DF90CF90BF90AF90089508951A
:1002400090E080E008958F929F92AF92BF920F93BB
:100250001F93CF93DF93CDB7DEB7A1970FB6F89476
:10026000DEBF0FBECDBF19A2423008F44AE08E01B6
:100270000F5D1F4F842E912CB12CA12CA501940150
:100280000E94FE03E62FB901CA01EA3044F5E05DA1
:10029000D801EE938D01232B242B252B79F790E0A9
:1002A00080E0109769F0FD0101900020E9F7319797
:1002B000AF014A1B5B0BBD0181E291E00E94F2009D
:1002C000A1960FB6F894DEBF0FBECDBFDF91CF91E0
:1002D0001F910F91BF90AF909F908F900895E95C10
:1002E000D7CFCF93DF93EC0160E08E810E94A60010
:1002F00061E08E810E94A60060E08E810E94A600CF
:100300008BE891E00197F1F7DF91CF910895CF92BB
:10031000DF92EF92FF920F931F93CF93DF936C01C5
:100320007C0187E0E80EF11CD0E0C0E0062F10E071
:10033000B8010C2E02C0759567950A94E2F76170BA
:10034000F70181917F010E94A6002196C430D1055A
:1003500079F7C601DF91CF911F910F91FF90EF9038
:10036000DF90CF900C947101CF92DF92EF92FF92C9
:100370000F931F93CF93DF93EC01F62E642F8C81A4
:100380000E94A6008D818F3F19F060E00E94A600B8
:100390000F2D10E08F8584FF25C06E0187E0C80E09
:1003A000D11CF12CE12CB8010E2C02C0759567957B
:1003B0000A94E2F76170F60181916F010E94A60034
:1003C000FFEFEF1AFF0A88E0E816F10461F7CE01AB
:1003D000DF91CF911F910F91FF90EF90DF90CF9021
:1003E0000C947101B80184E0759567958A95E1F7E1
:1003F000CE010E9487016F2DCE01DF91CF911F9119
:100400000F91FF90EF90DF90CF900C94870140E028
:10041000682F81E291E00C94B401CF93DF93823096
:1004200029F49091300198609093300180933401C9
:100430001092350180E48093360180E1809337018A
:1004400080E580933801809125010E94870080918A
:1004500026018F3F11F00E948700809127010E94A2
:100460008700C1E2D1E09E012152314080913001EC
:1004700084FD0AC084E090E02196281739073CF4F7
:100480008E810E948700EFCF88E090E0F5CF8BE36C
:100490009DE00197F1F760E0809125010E94A600A0
:1004A00060E0809127010E94A600809126018F3F85
:1004B00019F060E00E94A6008091300184FD39C0EF
:1004C00063E081E291E00E948701CBE4D6E4CE01B3
:1004D0000197F1F763E081E291E00E9487012197A3
:1004E000F1F763E081E291E00E94870183E592E009
:1004F0000197F1F762E081E291E00E94870180912B
:10050000300180620E94070284E0809331018CE018
:100510000E94070281E00E9407028BE39FE101979E
:10052000F1F782E08093320186E0DF91CF910C9465
:10053000070280620E9407028BE496E40197F1F7BC
:100540008091300180620E94070283E592E001976A
:10055000F1F78091300180620E940702D0CF41E024
:100560000E94B40181E090E008951F920F920FB6AF
:100570000F9211242F933F938F939F93AF93BF9329
:1005800080911D0190911E01A0911F01B091200149
:1005900030911C0123E0230F2D3758F50196A11D42
:1005A000B11D20931C0180931D0190931E01A09307
:1005B0001F01B09320018091180190911901A09121
:1005C0001A01B0911B010196A11DB11D8093180164
:1005D00090931901A0931A01B0931B01BF91AF91A1
:1005E0009F918F913F912F910F900FBE0F901F9071
:1005F000189526E8230F0296A11DB11DD2CF1F9298
:100600000F920FB60F9211242F933F934F935F9346
:100610006F937F938F939F93AF93BF93CF93DF930A
:10062000EF93FF93C0917800D0917900D0930101AE
:10063000C09300018091160190911701C817D90746
:1006400061F181E00E9407028BE39FE10197F1F7DE
:10065000E1E0809134018111E0E0E195F0E0EF5DAF
:10066000FE4F848980680E9407029E01A6E9B0E0DF
:100670000E94200422E331E040E050E00E94DF03CA
:10068000CA01B9014AE00E94230146E050E06EE051
:1006900071E081E291E00E94F2008091000190916E
:1006A00001019093170180931601FF91EF91DF9163
:1006B000CF91BF91AF919F918F917F916F915F91FA
:1006C0004F913F912F910F900FBE0F901F90189553
:1006D0001F920F920FB60F9211242F933F934F93B7
:1006E0005F936F937F938F939F93AF93BF93EF939A
:1006F000FF93E1E0809134018111E0E0E195F0E0C9
:10070000EF5DFE4F848980680E940702FF91EF91A0
:10071000BF91AF919F918F917F916F915F914F9119
:100720003F912F910F900FBE0F901F901895E1E20F
:10073000F1E01382128286E091E0918380838CE065
:1007400084838FEF85838BE0868385E0878384E0D5
:10075000808783E0818782E08287138614861586EE
:100760001686178681E00C940D0283E480937C004A
:100770008FE880937A0088E080937E0082E00E9478
:100780000D02F894A89580916000886180936000C4
:1007900081E6809360007894789480917A008064F8
:1007A00080937A00A89583B7817F846083BF83B7E5
:1007B000816083BF889583B78E7F83BFEDCF052E81
:1007C00097FB1EF400940E94F60357FD07D00E9489
:1007D000FE0307FC03D04EF40C94F60350954095AD
:1007E000309521953F4F4F4F5F4F089590958095DD
:1007F000709561957F4F8F4F9F4F0895A1E21A2EFC
:10080000AA1BBB1BFD010DC0AA1FBB1FEE1FFF1FB4
:10081000A217B307E407F50720F0A21BB30BE40B04
:10082000F50B661F771F881F991F1A9469F760954B
:100830007095809590959B01AC01BD01CF01089505
:10084000A29FB001B39FC001A39F700D811D112411
:10085000911DB29F700D811D1124911D0895EE0F01
:0E086000FF1F0590F491E02D0994F894FFCF4E
:10086E00640000000000AF02F20020011F012064AE
:06087E0065672043000045
:00000001FF
